{
  "contractName": "A",
  "abi": [
    {
      "inputs": [],
      "payable": false,
      "stateMutability": "nonpayable",
      "type": "constructor"
    },
    {
      "constant": true,
      "inputs": [],
      "name": "getValor",
      "outputs": [
        {
          "name": "",
          "type": "uint256"
        }
      ],
      "payable": false,
      "stateMutability": "view",
      "type": "function"
    }
  ],
  "bytecode": "0x6080604052348015600f57600080fd5b50600160008190555060a1806100266000396000f3fe608060405260043610603f576000357c0100000000000000000000000000000000000000000000000000000000900463ffffffff1680633ef42c97146044575b600080fd5b348015604f57600080fd5b506056606c565b6040518082815260200191505060405180910390f35b6000805490509056fea165627a7a72305820d977d8ebb0ecf26447c928bf2036136e431b0fa804ea0d88ef545125de253c7a0029",
  "source": "pragma solidity ^0.5.0;\n\ncontract A {\n\n\tuint256 valor;\n\n\tconstructor() public {\n\t\tvalor = 1;\n\t}\n\n\tfunction getValor() public view returns (uint256) {\n\t\treturn valor;\n\t}\n}\n",
  "sourcePath": "/home/javier/sc2sc-alastria/contracts/A.sol",
  "compiler": {
    "name": "solc",
    "version": "0.5.0+commit.1d4f565a.Emscripten.clang"
  },
  "schemaVersion": "3.0.9",
  "updatedAt": "2020-03-11T18:23:24.834Z",
  "devdoc": {
    "methods": {}
  },
  "userdoc": {
    "methods": {}
  }
}