{
  "contractName": "B",
  "abi": [
    {
      "inputs": [
        {
          "name": "aAddress",
          "type": "address"
        }
      ],
      "payable": false,
      "stateMutability": "nonpayable",
      "type": "constructor"
    },
    {
      "constant": true,
      "inputs": [],
      "name": "getValorDeA",
      "outputs": [
        {
          "name": "",
          "type": "uint256"
        }
      ],
      "payable": false,
      "stateMutability": "view",
      "type": "function"
    },
    {
      "constant": true,
      "inputs": [],
      "name": "getValorDeB",
      "outputs": [
        {
          "name": "",
          "type": "uint256"
        }
      ],
      "payable": false,
      "stateMutability": "view",
      "type": "function"
    },
    {
      "constant": true,
      "inputs": [],
      "name": "getAAddress",
      "outputs": [
        {
          "name": "",
          "type": "address"
        }
      ],
      "payable": false,
      "stateMutability": "view",
      "type": "function"
    }
  ],
  "bytecode": "0x608060405234801561001057600080fd5b506040516020806102cb8339810180604052602081101561003057600080fd5b8101908080519060200190929190505050806000806101000a81548173ffffffffffffffffffffffffffffffffffffffff021916908373ffffffffffffffffffffffffffffffffffffffff160217905550600260018190555050610232806100996000396000f3fe608060405260043610610057576000357c0100000000000000000000000000000000000000000000000000000000900463ffffffff16806305b84e031461005c57806306235f7014610087578063f811f244146100b2575b600080fd5b34801561006857600080fd5b50610071610109565b6040518082815260200191505060405180910390f35b34801561009357600080fd5b5061009c6101d3565b6040518082815260200191505060405180910390f35b3480156100be57600080fd5b506100c76101dd565b604051808273ffffffffffffffffffffffffffffffffffffffff1673ffffffffffffffffffffffffffffffffffffffff16815260200191505060405180910390f35b6000806000809054906101000a900473ffffffffffffffffffffffffffffffffffffffff1673ffffffffffffffffffffffffffffffffffffffff16633ef42c976040518163ffffffff167c010000000000000000000000000000000000000000000000000000000002815260040160206040518083038186803b15801561018f57600080fd5b505afa1580156101a3573d6000803e3d6000fd5b505050506040513d60208110156101b957600080fd5b810190808051906020019092919050505090508091505090565b6000600154905090565b60008060009054906101000a900473ffffffffffffffffffffffffffffffffffffffff1690509056fea165627a7a72305820a56812225452d4e054a31e297743000050d76603ddf44365ca2d98f543184dc40029",
  "source": "pragma solidity ^0.5.0;\n\nimport \"./A.sol\";\n\ncontract B {\n\n\tA a;\t\n\tuint256 valor2;\n\n\tconstructor(address aAddress) public {\n\t\ta = A(aAddress);\n\t\tvalor2 = 2;\n\t}\n\n\tfunction getValorDeA() public view returns (uint256) {\n\t\tuint256 valorDeA = a.getValor();\t\t\n\t\treturn valorDeA;\n\t}\n\n\tfunction getValorDeB() public view returns (uint256) {\t\t\n\t\treturn valor2;\n\t}\n\n\tfunction getAAddress() public view returns (address) {\n\t\treturn address(a);\n\t}\n\n}\n",
  "sourcePath": "/home/javier/sc2sc-alastria/contracts/B.sol",
  "compiler": {
    "name": "solc",
    "version": "0.5.0+commit.1d4f565a.Emscripten.clang"
  },
  "schemaVersion": "3.0.9",
  "updatedAt": "2020-03-11T18:23:24.839Z",
  "devdoc": {
    "methods": {}
  },
  "userdoc": {
    "methods": {}
  }
}